S01A000047726164756174696F6E5F50726F6A6563742E73726563C6
S113000051C06BC06AC069C068C067C066C065C0C3
S113001064C063C062C061C060C05FC05EC05DC0D8
S11300205CC007634236B79BD8A71A39685618AE26
S1130030BAAB558C1D3CB7CC5763BD6DEDFD753E19
S1130040F6177231BF000000803F08000000BE9226
S11300502449123EABAAAA2ABECDCCCC4C3E000009
S11300600080BEABAAAAAA3E00000000BF000000A8
S1130070803F0000000000084178D3BB4387D113C0
S11300803D190E3CC3BD4282AD2B3E68EC8276BE68
S1130090D98FE1A93E4C80EFFFBE01C4FF7F3F0032
S11300A00000000011241FBECFE5D2E0DEBFCDBFAB
S11300B010E0A0E6B0E0E4E7F3E102C005900D92A1
S11300C0A239B107D9F720E0A2E9B0E001C01D923E
S11300D0AD3AB207E1F702D04BC992CF9CD088E683
S11300E090E027D160E080E690E06AD2C9D381E055
S11300F0E9D336D5ADD46093930070939400809384
S1130100950090939600DDD4809392007AD060910C
S113011093007091940080919500909196007AD20A
S113012080919200B6D22FEF88E09DE32150804069
S11301309040E1F700C0000064D08CE01ED08091B4
S11301409200B8D22FEF88E09DE321508040904088
S1130150E1F700C000008FE010D0C9CF41E062E0B9
S113016081E02FD387E893E10197F1F700C0000005
S113017040E062E081E025D30895CF93C82F40E0AA
S113018061E080E01ED340E062E080E01AD340E00A
S113019062E081E016D32C2F207F30E0359527953F
S11301A046E063E080E044D3D9DF2C2F2F70220F88
S11301B0220F220F46E063E080E03AD3CFDF83EFE3
S11301C091E00197F1F700C00000C63011F0C8318A
S11301D011F41092AA00C43011F0CC3119F481E06A
S11301E08093AA00CF91089582E0C7DF8BE195E266
S11301F00197F1F700C000001092AC001092AB0020
S1130200089581E0BADFF0DF8BE195E20197F1F721
S113021000C00000089580919700811132C041E030
S113022061E098D241E062E080E094D241E062E093
S113023081E090D241E063E080E08CD241E064E070
S113024080E088D241E065E080E084D241E066E06D
S113025080E080D22FE58AEE90E0215080409040EB
S1130260E1F700C0000083E388DF82E386DF88E2F1
S113027084DF8FE082DF86E080DFC3DF81E080936C
S1130280970008958091AB009091AC009C012F7170
S11302903327232B21F4B5DF80E86FDF08958F70B7
S11302A09927892B11F480EC68DF0895CF93C82F28
S11302B0B2DFE8DF41E061E080E083D240E062E069
S11302C080E07FD240E062E081E07BD22C2F207F6F
S11302D030E03595279546E063E080E0A9D23EDF23
S11302E02C2F2F70220F220F220F46E063E080E0B4
S11302F09FD234DF83EF91E00197F1F700C0000053
S11303008091AA00882351F08091AB009091AC00B9
S113031001979093AC008093AB0009C08091AB002F
S11303209091AC0001969093AC008093AB00CF9178
S113033008950F931F93CF938C01C0E002C0CF5F49
S1130340B5DFF801EC0FF11D80818111F8CFCF9159
S11303501F910F9108959C01615090E00CC0D90148
S1130360A90FB11D8C919F5FF901E60FF11D40812A
S11303704C9361508083961790F30895EF92FF9207
S11303800F931F93CF93DF938A01D22FC0E010C045
S11303907801EC0EF11C2AE030E040E050E0C6D7D2
S11303A0605DF7016083622F732F842F952FCF5FD9
S11303B0611571058105910559F706C0F801EC0F27
S11303C0F11D80E38083CF5FCD17C0F36C2FC8018C
S11303D0C2DFF801EC0FF11D10828C2FDF91CF9159
S11303E01F910F91FF90EF900895CF93DF93CDB7B6
S11303F0DEB7A1970FB6F894DEBF0FBECDBF61156F
S113040071058105910519F480E350DF08C020E0EF
S1130410AE014F5F5F4FB2DFCE0101968ADFA19636
S11304200FB6F894DEBF0FBECDBFDF91CF91089514
S11304304F925F926F927F928F929F92AF92BF92F0
S1130440FF920F931F93CF93DF932B013C018A01FB
S1130450F22E97D44B015C01C0D49B01AC01C301C3
S1130460B20188D32B013C0120E0A801C501B401ED
S113047085DFC82FD0E0F801EC0FFD1F8EE28083EA
S11304806F2D70E080E090E0A8D49B01AC0160E0A7
S113049070E080E291E4AAD59B01AC01C301B201F2
S11304A03AD5219639D4A22FF42FE52FA8014C0F69
S11304B05D1F2F2D6A2F732F8F2F9E2F5FDFDF91EC
S11304C0CF911F910F91FF90BF90AF909F908F900D
S11304D07F906F905F904F900895CF93DF93CDB747
S11304E0DEB7A1970FB6F894DEBF0FBECDBF242FA1
S11304F0AE014F5F5F4F9CDFCE0101961ADFA196DC
S11305000FB6F894DEBF0FBECDBFDF91CF91089533
S1130510FF920F931F93CF93DF9300D0CDB7DEB735
S1130520F82E062F78DE80E8898380EC8A8310E039
S1130530E1E0F0E0EC0FFD1FE00FF11F80818F0D73
S11305401CDE02951295107F1027007F10270F0DD7
S1130550111D1093AC000093AB000F900F90DF912E
S1130560CF911F910F91FF900895CF93C82F53DE21
S113057041E061E080E025D140E062E080E021D10B
S113058040E062E081E01DD12C2F207F30E03595E2
S1130590279546E063E080E04BD1E0DD2C2F2F70FF
S11305A0220F220F220F46E063E080E041D1D6DD26
S11305B083EF91E00197F1F700C00000CF91089517
S11305C00F931F93CF93DF938C01862F90E00896AF
S11305D0880F880F880FD1DDC0E0D0E006C0F80195
S11305E0EC0FFD1F8081C1DF2196C830D105BCF31B
S11305F08091AB009091AC00BC01729562956F70D4
S113060067277F7067278F7083DFDF91CF911F91FA
S11306100F910895CF92DF92EF92FF926B017C01CC
S113062088E790E086DE80E4C81682E4D8068FE08E
S1130630E806F10470F0C701B601CFD320E034E23C
S113064044E759E4FCD241E048DF80E890E071DE01
S11306501BC088EEC81683E0D806E104F10470F0EC
S1130660C701B601BAD320E030E04AE754E4E7D248
S113067041E033DF84E890E05CDE06C0C701B601E8
S1130680B4DE85E890E055DEFF90EF90DF90CF90E8
S11306900895CF93C82F61E080E03ADF88E890E0C6
S11306A048DE6C2F70E080E090E09FDE85E2FEDDA6
S11306B0CF910895EF92FF920F931F93CF93C82F7A
S11306C0682F70E080E090E088D32AE037ED43E2C1
S11306D05EE321D4D7D455D3C23338F060FBEE2483
S11306E0E0F8F12CE60EF11C04C0E62EF12CE8949F
S11306F0E0F861E080E00CDFC0E003C08FE5D6DD08
S1130700CF5F0C2F10E080E190E08E199F09969541
S113071087950817190790F360E08C2FF9DE03C062
S113072080E0C4DDCF5F8C2F90E09701200F311F54
S113073082179307A8F361E08C2FEADE03C08FE5EC
S1130740B5DDCF5FC031D8F3CF911F910F91FF90EA
S1130750EF900895882319F08130D1F00895411164
S11307600CC02AB381E090E002C0880F991F6A95FB
S1130770E2F7809582238ABB08952AB381E090E052
S113078002C0880F991F6A95E2F7822B8ABB0895ED
S113079041110CC027B381E090E002C0880F991F7B
S11307A06A95E2F78095822387BB089527B381E099
S11307B090E002C0880F991F6A95E2F7822B87BBED
S11307C00895882319F08130D1F0089541110CC0A7
S11307D02BB381E090E002C0880F991F6A95E2F77D
S11307E0809582238BBB08952BB381E090E002C0F7
S11307F0880F991F6A95E2F7822B8BBB08954111EC
S11308000CC028B381E090E002C0880F991F6A955C
S1130810E2F78095822388BB089528B381E090E0B5
S113082002C0880F991F6A95E2F7822B88BB08954E
S1130830E42FF0E0E61BF109319641E050E002C0FC
S1130840440F551FEA95E2F74150510902C0440F85
S1130850551F6A95E2F7882319F0813049F008950D
S11308608BB3942F909589234223482B4BBB089537
S113087088B3942F909589234223482B48BB08952D
S11308808FB58F778FBD8FB58F7B8FBD8FB58F7DE4
S11308908FBD8FB58F7E8FBD8FB58D7F8FBD8FB58B
S11308A08E7F8FBD8EB58F7E8EBD8EB5877F8EBDBC
S11308B08EB58F778EBD8AB38F778ABB8BB38068F2
S11308C08BBB08958230B9F128F4882361F081301C
S11308D0E1F088C0843009F45AC008F442C085307D
S11308E009F46BC07FC08EB58E7F8EBD8EB58D7FB3
S11308F08EBD8EB58B7F8EBD10929800109299009C
S113090010929A0010929B006DC08EB581608EBDCE
S11309108EB58D7F8EBD8EB58B7F8EBD80E090E0D1
S1130920A0E8BFE38093980090939900A0939A0065
S1130930B0939B0057C08EB58E7F8EBD8EB58260FE
S11309408EBD8EB58B7F8EBD80E090E0A0E0B1E4DB
S11309508093980090939900A0939A00B0939B0081
S113096041C08EB581608EBD8EB582608EBD8EB560
S11309708B7F8EBD80E090E0A0E8B2E48093980085
S113098090939900A0939A00B0939B002BC08EB5CE
S11309908E7F8EBD8EB58D7F8EBD8EB584608EBDEF
S11309A080E090E0A0E8B3E48093980090939900ED
S11309B0A0939A00B0939B0015C08EB581608EBD44
S11309C08EB58D7F8EBD8EB584608EBD80E090E047
S11309D0A0E8B4E48093980090939900A0939A00BF
S11309E0B0939B001DBC1CBC8BB180628BB98EB5CF
S11309F08F7B8EBD01C000005D9BFDCF84B595B596
S1130A009093A9008093A8008BB180628BB98EB5B6
S1130A1080648EBD01C000005D9BFDCF84B595B59B
S1130A209093A7008093A6008BB180628BB98EB59A
S1130A308F7B8EBD01C000005D9BFDCF84B595B555
S1130A409093A5008093A4008BB180628BB9089524
S1130A502091A8003091A9008091A6009091A70050
S1130A602817390730F56091A4007091A500861706
S1130A70970718F5621B730B80E090E0AED160938A
S1130A80A0007093A1008093A2009093A3002091F2
S1130A9098003091990040919A0050919B003BD26C
S1130AA09B01AC0160E876E988E99BE4C8D069D190
S1130AB0089560E070E0CB01089560E070E0CB0140
S1130AC00895CF92DF92EF92FF920F931F93CF93EB
S1130AD0DF938091A8009091A9000091A600109145
S1130AE0A7008017910780F5C091A400D091A500BC
S1130AF00C171D0758F5BE01681B790B80E090E0C8
S1130B006CD16B017C016093A0007093A100809371
S1130B10A2009093A300BE01601B710B80E090E0E3
S1130B205CD160939C0070939D0080939E00909391
S1130B309F00A701960183D020E030E048EC52E406
S1130B40EAD11FD1862F03C080E001C080E0DF918D
S1130B50CF911F910F91FF90EF90DF90CF90089568
S1130B608EB58E7F8EBD8EB58D7F8EBD8EB58B7FFF
S1130B708EBD08955058BB27AA270ED092C183D1A9
S1130B8030F088D120F031F49F3F11F41EF468C195
S1130B900EF4E095E7FB5EC1E92F94D180F3BA1718
S1130BA0620773078407950718F071F49EF5ACC1CA
S1130BB00EF4E0950B2EBA2FA02D0B01B901900174
S1130BC00C01CA01A0011124FF27591B99F0593FB8
S1130BD050F4503E68F11A16F040A22F232F342F00
S1130BE04427585FF3CF469537952795A795F0404E
S1130BF05395C9F77EF41F16BA0B620B730B840B63
S1130C00BAF09150A1F0FF0FBB1F661F771F881F1A
S1130C10C2F70EC0BA0F621F731F841F48F4879572
S1130C2077956795B795F7959E3F08F0B3CF939561
S1130C30880F08F09927EE0F9795879508950CD0A3
S1130C4030C128D140F01FD130F021F45F3F19F0BA
S1130C5001C151115AC104C135D198F39923C9F383
S1130C605523B1F3951B550BBB27AA2762177307AE
S1130C70840738F09F5F5F4F220F331F441FAA1F62
S1130C80A9F333D00E2E3AF0E0E830D09150504022
S1130C90E695001CCAF729D0FE2F27D0660F771FD0
S1130CA0881FBB1F261737074807AB07B0E809F0B2
S1130CB0BB0B802DBF01FF2793585F4F2AF09E3F47
S1130CC0510568F0C7C021C15F3FECF3983EDCF3E7
S1130CD0869577956795B795F7959F5FC9F7880FC0
S1130CE0911D9695879597F90895E1E0660F771F12
S1130CF0881FBB1F621773078407BA0720F0621BA3
S1130D00730B840BBA0BEE1F88F7E0950895BEE3CE
S1130D1004D008F490E80895BFE322273327A901FB
S1130D20D9D058F19F5740F1B91738F1BFE3B91B37
S1130D309927B8503AF4660F771F881F991FB39507
S1130D40D2F316C0B8504AF0232F342F452F562F14
S1130D50672F782F8827B850BAF7B85F49F086957F
S1130D60779567955795479537952795BA95B9F728
S1130D700EF479D088940895889460E070E0CB01F3
S1130D800895A8D088F09F5790F0B92F9927B751AC
S1130D90A0F0D1F0660F771F881F991F1AF0BA953B
S1130DA0C9F712C0B13081F0AFD0B1E00895ACC042
S1130DB0672F782F8827B85F39F0B93FCCF3869531
S1130DC077956795B395D9F73EF49095809570958E
S1130DD061957F4F8F4F9F4F0895E89409C097FB0B
S1130DE03EF490958095709561957F4F8F4F9F4FFE
S1130DF09923A9F0F92F96E9BB279395F695879542
S1130E0077956795B795F111F8CFFAF4BB0F11F404
S1130E1060FF1BC06F5F7F4F8F4F9F4F16C08823AB
S1130E2011F096E911C0772321F09EE8872F762FE1
S1130E3005C0662371F096E8862F70E060E02AF022
S1130E409A95660F771F881FDAF7880F969587950E
S1130E5097F9089597F99F6780E870E060E0089536
S1130E609FEF80EC089590958095709560955095CE
S1130E704095309521953F4F4F4F5F4F6F4F7F4FB8
S1130E808F4F9F4F089500240A94161617061806CC
S1130E900906089500240A9412161306140605067A
S1130EA00895092E0394000C11F4882352F0BB0F0B
S1130EB040F4BF2B11F460FF04C06F5F7F4F8F4F6E
S1130EC09F4F089557FD9058440F551F59F05F3FA9
S1130ED071F04795880F97FB991F61F09F3F79F058
S1130EE087950895121613061406551FF2CF4695DA
S1130EF0F1DF08C0161617061806991FF1CF86955C
S1130F007105610508940895E894BB27662777273F
S1130F10CB0197F908950AD0C4CFB5DF28F0BADF22
S1130F2018F0952309F096CF9BCFEFCFCBDFA8F332
S1130F309923D9F35523C9F3950F50E0551FAA27D8
S1130F40EE27FF27BB2700240894679520F4E20FBF
S1130F50F31FB41F0A1E220F331F441FAA1F6695D6
S1130F60A9F7779530F4F30FB41F0A1E121E08F484
S1130F706395330F441FAA1F221F769599F787950F
S1130F8020F4B40F0A1E121E631F440FAA1F221F4F
S1130F90331F8695A9F7862F712D602D11249F5735
S1130FA050408AF0E1F088234AF0EE0FFF1FBB1F88
S1130FB0661F771F881F91505040A9F79E3F510527
S1130FC070F048CFA2CF5F3FECF3983EDCF38695F8
S1130FD077956795B795F795E7959F5FC1F7FE2BD2
S1130FE0880F911D9695879597F90895FA01EE0F4C
S1130FF0FF1F30962105310599F16115710561F4E2
S11310008038BFE39B0749F168949038810561F00B
S11310108038BFEF9B0741F0992342F5FF3FE1057C
S11310203105210511F1E8940894E795D901AA2323
S113103029F4AB2FBE2FF85FD0F310C0FF5F70F41C
S1131040A695E0F7F73950F019F0FF3A38F49F7796
S11310509F930CD00F9007FC905808953EF000CF5A
S113106060E070E080E89FE308954FE79F775F9327
S11310704F933F932F93E7D02F913F914F915F91DF
S11310804ADF25C027DFE0F09E37D8F09639B8F460
S11310909E3848F4672F782F8827985FF9CF869574
S11310A07795679593959539D0F3B62FB1706B0FFB
S11310B0711D811D20F4879577956795939533C0AD
S11310C04DC023CF19F40EF0C5CE1ECFC9CE02DF1A
S11310D0C8F39638C0F707F80F92E8942BE33AEA7E
S11310E048EB5FE725DF0F920F920F924DB75EB783
S11310F00F92E9D0E2E2F0E03FD04F915F91EF919F
S1131100FF91E595EE1FFF1F49F0FE57E068442765
S1131110EE0F441FFA95E1F74195550B5BD00F9004
S113112007FE4FC00895882371F4772321F0985067
S1131130872B762F07C0662311F499270DC0905191
S1131140862B70E060E02AF09A95660F771F881F5F
S1131150DAF7880F9695879597F908959F3F31F0B0
S1131160915020F4879577956795B795880F911DD1
S11311709695879597F90895DF93CF931F930F93CF
S1131180FF92EF92DF927B018C01689405C0DA2E06
S1131190EF01CCDEFE01E894A591259135914591AE
S11311A05591AEF3EF01F8DCFE019701A801DA9442
S11311B079F7DF90EF90FF900F911F91CF91DF911E
S11311C008959B01AC0160E070E080E89FE337CDB7
S11311D041CEC4CF7FDEE8F39923D9F3940F511D98
S11311E0BBF39150504094F059F0882332F0660FCD
S11311F0771F881F91505040C1F79E3F510544F717
S1131200880F911D9695879597F908955F3FACF0E7
S1131210983E9CF0BB27869577956795B79508F41B
S1131220B1609395C1F7BB0F58F711F460FFE8CF95
S11312306F5F7F4F8F4F9F4FE3CF67CE0EF08ECF00
S11312400FCE689407CE46DEC8F39923D1F3C6F3D4
S1131250DF93CF931F930F93FF92C92FDD2788232A
S11312602AF02197660F771F881FDAF720E030E015
S113127040E85FEB9FE3883920F0803E30F0219610
S11312808F7779DCEAE4F0E003C075DCE7E7F0E0AF
S113129073DF8B01BE01EC01FB2E6F57710975954D
S11312A0771F880B990B9BDD28E132E741E35FE36D
S11312B03DDEAF2D9801AE01FF900F911F91CF91AC
S11312C0DF916ADCEECDFA01DC01AA0FBB1F9B01A2
S11312D0AC01BF5728F422273327442750781FC076
S11312E0B75188F4AB2F0024469537952795011CF8
S11312F0A395D2F3002069F0220F331F441FB39546
S1131300DAF30DD037CC61307105A0E88A07B9460D
S113131030F49B01AC0166277727882790783096B4
S113132021F020833183428353830895A1E21A2E4E
S1131330AA1BBB1BFD010DC0AA1FBB1FEE1FFF1F75
S1131340A217B307E407F50720F0A21BB30BE40BC5
S1131350F50B661F771F881F991F1A9469F760950C
S11313607095809590959B01AC01BD01CF010895C6
S1071370F894FFCF1B
S11313741F00000000000000496E697469616C6913
S11313847A696E672E2E2E0046726571203D200008
S11313944D487A004B487A00444379636C65203D98
S10513A4200023
S9030000FC
